:100000000C9461000C947E000C947E000C947E0095
:100010000C947E000C947E000C947E000C94DA0A02
:100020000C947E000C947E000C947E000C947E0058
:100030000C947E000C947E000C947E000C947E0048
:100040000C94B9070C947E000C947E000C947E00F6
:100050000C947E000C947E000C947E000C947E0028
:100060000C947E000C947E00000000080002010049
:100070000003040700000000000000000102040863
:100080001020408001020408102001020408102002
:10009000040404040404040402020202020203032E
:1000A00003030303000000002300260029000000D2
:1000B0000000250028002B0000000000240027007D
:1000C0002A0011241FBECFEFD8E0DEBFCDBF11E064
:1000D000A0E0B1E0E2EAFAE202C005900D92AA3196
:1000E000B107D9F721E0AAE1B1E001C01D92AD3F0F
:1000F000B207E1F70E944E040C9484120C940000A5
:1001000069E071E002960C94FB03FC01808191810F
:1001100008950F931F93CF93DF93EC018C010E5F33
:100120001F4F6DE071E0C8010E942804882311F080
:1001300061E008C064E171E0C8010E9428048823DE
:1001400041F060E08881DF91CF911F910F910C9475
:10015000F502DF91CF911F910F910895CF92DF9219
:10016000EF92FF920F931F93CF93DF93EC017B01EC
:100170006A018C010E5F1F4F69E071E0C8010E94A7
:10018000FB03F7018081918199838883B601C801BF
:100190000E941104188660E088810E942E03CE011F
:1001A000DF91CF911F910F91FF90EF90DF90CF9053
:1001B0000C948900FC018085882311F0108602C010
:1001C00081E08087608580810C942E039F92AF929E
:1001D000BF92CF92DF92EF92FF920F931F93CF9334
:1001E000DF93CDB7DEB728970FB6F894DEBF0FBE0A
:1001F000CDBF5C0118861F8289E0982E2F8138853B
:10020000F50180819181821793070CF441C06DE064
:1002100071E0CE0101960E94FB0389E090E00E940C
:1002200047048C01AE014F5F5F4FBE01695F7F4F96
:100230000E94AE00CE0101960E948D032F81388569
:10024000929EC001939E900D1124F501C280D3802F
:10025000C80ED91EF801819191917F01F601819319
:100260009193B701CF010E941104F8018085F60136
:1002700080870115110531F0C7010E948D03C80167
:100280000E944B048F819885019698878F83B6CF03
:1002900028960FB6F894DEBF0FBECDBFDF91CF9189
:1002A0001F910F91FF90EF90DF90CF90BF90AF9094
:1002B0009F900895AF92BF92CF92DF92EF92FF92FC
:1002C0000F931F93CF93DF938C017B01FB01808100
:1002D0009181F80191838083FB012081318121325A
:1002E000FEE03F0740F449E0429FC001439F900D6C
:1002F0001124029602C08FEF9FEF0E944904F7017C
:1003000020813181EC0129933993C080D180E12C87
:10031000F12C5E01CE012996EC14FD0431F00E940F
:100320008000FFEFEF1AFF0AF5CFF801A282B38237
:10033000C801DF91CF911F910F91FF90EF90DF9057
:10034000CF90BF90AF900C94E60049E0469F90019B
:10035000479F300D1124FC0182819381820F931FEE
:100360000895EF92FF920F931F93CF93DF9300D0E6
:10037000CDB7DEB78DE090E09A83898384E090E08A
:100380000E9447048C01BE016F5F7F4F0E945A019B
:1003900010931B0100931A0166E070E0C8010E94EF
:1003A000A5010E9485007C0189E290E00E9447043B
:1003B0008C01B7010E94470210931D0100931C019C
:1003C000C8010E94C6020E9462040F900F90DF9144
:1003D000CF911F910F91FF90EF900895CF93DF93EE
:1003E00080911C0190911D010E94CA02EC01809134
:1003F0001C0190911D010E94C602BE010E942F05A2
:10040000892B39F180911C0190911D010E94CA0233
:10041000FC01448155816681778180911C01909116
:100420001D010E9460028E30910548F4BC0180914C
:100430001A0190911B010E94A5010E94DA0080918F
:100440001C0190911D010E94C602DF91CF910C9476
:100450007904DF91CF910895FC0184E4848B858B2E
:10046000868B878B808F818F26E4228F97E3938FF3
:10047000248F958F968F278F20A391A335E332A3E6
:1004800023A394A335A386A337A380A708950F932E
:100490001F93CF93DF93EC017983688381E090E031
:1004A0000E9447048C01688179810E945D041B834E
:1004B0000A83CE01DF91CF911F910F910C942C02F2
:1004C0004D3B82E458078FEF6807710509F452C06D
:1004D00010F5473E88E158078FEF6807710509F46A
:1004E00043C048F44F3E50416F4F710509F048C07A
:1004F00084E090E008954F3C80E358078FEF680751
:10050000710509F440C0473C58436F4F7105C1F570
:1005100085E090E00895453A8AE558078FEF68072F
:10052000710529F178F4453B8AE458078FEF680795
:10053000710519F14D3A52456F4F710509F589E082
:1005400090E00895473988E658078FEF68077105EE
:1005500041F045385A476F4F710591F483E090E0C0
:10056000089580E090E0089582E090E0089586E0AC
:1005700090E0089587E090E0089588E090E0089585
:1005800088EE93E0089581E090E00895FC01828177
:100590009381089504960895833081F028F4813082
:1005A00099F08230A1F008958730A9F08830B9F031
:1005B0008430D1F4809180008F7D03C080918000D1
:1005C0008F7780938000089584B58F7702C084B5BB
:1005D0008F7D84BD08958091B0008F7703C0809196
:1005E000B0008F7D8093B0000895CF93DF9390E0AB
:1005F000FC01E458FF4F2491FC01E057FF4F849128
:10060000882349F190E0880F991FFC01E854FF4FBF
:10061000A591B49182559F4FFC01C591D4919FB78C
:10062000611108C0F8948C91209582238C93888165
:1006300082230AC0623051F4F8948C91322F3095A5
:1006400083238C938881822B888304C0F8948C91B7
:10065000822B8C939FBFDF91CF9108950F931F93AF
:10066000CF93DF931F92CDB7DEB7282F30E0F9018B
:10067000E859FF4F8491F901E458FF4F1491F901B3
:10068000E057FF4F04910023C9F0882321F06983CC
:100690000E94CC026981E02FF0E0EE0FFF1FE255CF
:1006A000FF4FA591B4919FB7F8948C91611103C04D
:1006B0001095812301C0812B8C939FBF0F90DF91F8
:1006C000CF911F910F910895CF93DF93282F30E0A2
:1006D000F901E859FF4F8491F901E458FF4FD49193
:1006E000F901E057FF4FC491CC2391F081110E9492
:1006F000CC02EC2FF0E0EE0FFF1FEC55FF4FA59161
:10070000B4912C912D2381E090E021F480E002C08F
:1007100080E090E0DF91CF910895FC01808191818C
:100720000C942B11CF93DF93EC0188819981009772
:1007300011F00E942B11198218821D821C821B82CB
:100740001A82DF91CF9108950F931F93CF93DF9378
:10075000EC018B016F5F7F4F888199810E94BA11F4
:10076000009731F0998388831B830A8381E001C05D
:1007700080E0DF91CF911F910F910895CF93DF9388
:10078000EC0188819981892B29F08A819B818617C8
:10079000970760F4CE010E94A403882341F08C8166
:1007A0009D81892B19F4E881F981108281E0DF9124
:1007B000CF910895EF92FF920F931F93CF93DF9302
:1007C000EC017B018A01BA010E94BE03811104C0C1
:1007D000CE010E94920307C01D830C83B70188815C
:1007E00099810E949912CE01DF91CF911F910F91B3
:1007F000FF90EF900895FC01118210821382128203
:10080000158214826115710559F0FB0101900020D9
:10081000E9F7AF0141505109461B570B0C94DA031D
:100820000895CF93DF93EC01FB018617970761F0E2
:10083000608171816115710529F0448155810E94A3
:10084000DA0302C00E949203CE01DF91CF91089596
:10085000FC0124813581232B31F421E061157105E0
:10086000A1F0FB0108C0FC01808191816115710537
:1008700031F421E0FC018081882339F005C00E9419
:10088000901221E0892B09F020E0822F08950C942A
:1008900093100C9493100C942B1108950E9403084C
:1008A0000E944D040E94B101C0E0D0E00E94EE0120
:1008B0002097E1F30E940000F9CF60932801109285
:1008C0002A010895F89482E08093B0008093B100EB
:1008D00094E69093B3001092B200809370007894E5
:1008E0008093270110922B018091280160E00C94E5
:1008F000F50282E08093270110922B0108958F92D8
:100900009F92AF92BF92CF92DF92EF92FF927B01C4
:10091000BA0180E090E00E94A2134B015C01B70194
:1009200080E090E00E94A2136B017C012DEC3CEC76
:100930004CE45FE30E9454149B01AC01C501B40177
:100940000E94051387FD17C02DEC3CEC4CE45FE3DF
:10095000C501B4010E9454149B01AC01C701B6014A
:100960000E940513992787FD90958827990F881F66
:100970009927019602C080E090E0FF90EF90DF9011
:10098000CF90BF90AF909F908F9008958F929F923D
:10099000AF92BF92CF92DF92EF92FF920F931F938D
:1009A000CF93DF936C01EB01EC84FD8486E0E816C5
:1009B000F1040CF444C0EE0CFF1C06E010E045EC22
:1009C000842E4DE9942E4CE1A42E41E8B42E8A8564
:1009D0009B85FC01E00FF11F40815181F8013497A4
:1009E000E80FF91F60817181C6010E947F04FC013C
:1009F000A501940163E971E080E091E00E94B714E1
:100A00004F01AA2497FCA094BA2C86269726A826E4
:100A1000B9260E5F1F4F0E151F05C9F68C829D82E9
:100A2000AE82BF8280E290E0998788878FEF9FEF48
:100A30009983888361E070E080E090E003C060E02B
:100A400070E0CB01DF91CF911F910F91FF90EF905C
:100A5000DF90CF90BF90AF909F908F9008950F93AD
:100A60001F93CF93DF938C01EB018EE291E09B8784
:100A70008A8780912B0190E09D878C878091F80177
:100A800090E09F878E8780912701853009F05EC0B6
:100A9000C8010E94420D882319F081E090E058C0FF
:100AA000BE01C8010E943E088111F7CFBE01C801F6
:100AB0000E94D9088111F1CFBE01C8010E946606CB
:100AC0008111EBCFBE01C8010E94F40E8111E5CF68
:100AD000BE01C8010E949B0F8111DFCFBE01C8017A
:100AE0000E94F5068111D9CFBE01C8010E947D097F
:100AF0008111D3CFBE01C8010E94AD058111CDCFB8
:100B0000BE01C8010E94E10D8111C7CFBE01C8011D
:100B10000E94940B8111C1CFBE01C8010E94360C06
:100B20008111BBCFBE01C8010E94C70C8111B5CF96
:100B3000BE01C8010E94C604672B682B692B09F00F
:100B4000ACCF82E08093270110922B0180E090E0EF
:100B5000DF91CF911F910F910895AF92BF92CF92E5
:100B6000DF92EF92FF920F931F93CF93DF93EB01EE
:100B700080912B01823261F5EA85FB858281938128
:100B800068E572E00E944E0A892B11F180912B01D9
:100B900090E081509048880F991FEA85FB85E80F07
:100BA000F91F8081918168E572E00E944E0A892BCD
:100BB00079F0198618868FEF9FEFDC018C839D8377
:100BC000AE83BF8386E090E09983888381E073C021
:100BD000EA85FB858281938160E47FE10E944E0A71
:100BE000892B21F080912B01813210F480E063C0C9
:100BF000EA85FB858481958160EA7FE00E94940A02
:100C0000892BA1F358E0A52EB12C03E010E0C12CF4
:100C1000D12C7601EA85FB85C801880F991FE80F62
:100C2000F91F8081918168E572E00E944E0A892B4C
:100C3000E9F2EA85FB85EA0DFB1D8081918160E484
:100C400076E00E94940A892B39F0CC0CDD1CEE1C56
:100C5000FF1C6894C0F811C0EA85FB85EA0DFB1DF6
:100C60008081918166E272E00E94940A892B09F4E6
:100C7000BDCFCC0CDD1CEE1CFF1C0E5F1F4F84E0B3
:100C8000A80EB11C0332110529F6EA85FB85EA5B43
:100C9000FF4F8081918168E572E00E944E0A892BA6
:100CA00009F4A4CF80E190E099878887CC82DD8227
:100CB000EE82FF8287CFDF91CF911F910F91FF903E
:100CC000EF90DF90CF90BF90AF9008956F927F929A
:100CD0008F929F92AF92BF92CF92DF92EF92FF924C
:100CE0000F931F93CF93DF93EB0180912B018232FF
:100CF00008F461C0EA85FB85828193816EE571E02D
:100D00000E944E0A892B09F456C063E0A62EB12C2E
:100D100002E010E0C12CD12C7601350180912B012D
:100D200090E0A816B906E4F54801880C991CEA85FC
:100D3000FB85E80DF91D808191816EE977E00E94C5
:100D40004E0A892B39F0CC0CDD1CEE1CFF1C68947C
:100D5000C0F810C0EA85FB85E80DF91D80819181FE
:100D60006EEE72E00E944E0A892B29F1CC0CDD1C3C
:100D7000EE1CFF1CC501880F991FEA85FB85E80F53
:100D8000F91F808191816EE571E00E94940A22E052
:100D9000A20EB11C892B19F00E5F1F4FBECF83012D
:100DA000015011091595079519870887003111051C
:100DB00024F41986188680E009C0CC82DD82EE8298
:100DC000FF828CE090E09983888381E0DF91CF916E
:100DD0001F910F91FF90EF90DF90CF90BF90AF9059
:100DE0009F908F907F906F9008958F929F92AF9277
:100DF000BF92CF92DF92EF92FF920F931F93CF9308
:100E0000DF9300D000D0CDB7DEB74B01DB011A96DF
:100E1000ED91FC911B97828193816EEA7DE00E94A7
:100E20004E0A892B11F480E093C0D4011A96ED91FB
:100E3000FC911B978481958166ED76E00E944E0AB5
:100E4000892B89F3E6E0EE2EF12C20E030E040E043
:100E500050E0A12CB12CC12CD12CD4011A96ED91CB
:100E6000FC911B97EE0DFF1D8081918166EF71E073
:100E700029833A834B835C830E944E0A892B99F223
:100E800087010E5F1F4FD4011A96ED91FC911B97BD
:100E9000E00FF11F808191816CED74E00E94940A53
:100EA00029813A814B815C81892B39F0B501C601DA
:100EB00001E00E94091521601DC0D4011A96ED9130
:100EC000FC911B97E00FF11F8081918160E971E037
:100ED00029833A834B835C830E94940A29813A8157
:100EE0004B815C81892B09F49ECFB501C60101E0DD
:100EF0000E9409155B016C01B4E0EB0EF11CE6ECFD
:100F0000EE16F10409F0A9CFD40114962C9314978E
:100F100015963C93159716964C93169717965C93D7
:100F20001797B501C60100E20E94241512962C9372
:100F3000129713963C93139785E090E011969C933B
:100F40008E9380E390E019969C938E93189781E09E
:100F50000F900F900F900F90DF91CF911F910F91F5
:100F6000FF90EF90DF90CF90BF90AF909F908F90C9
:100F700008951F920F920FB60F9211242F933F9353
:100F80008F939F93AF93BF9380911F019091200106
:100F9000A0912101B091220130911E0123E0230F85
:100FA0002D3720F40196A11DB11D05C026E8230FA1
:100FB0000296A11DB11D20931E0180931F019093E5
:100FC0002001A0932101B0932201809123019091EF
:100FD0002401A0912501B09126010196A11DB11D0A
:100FE0008093230190932401A0932501B0932601BF
:100FF000BF91AF919F918F913F912F910F900FBE15
:101000000F901F901895789484B5826084BD84B544
:10101000816084BD85B5826085BD85B5816085BDF3
:10102000EEE6F0E0808181608083E1E8F0E010820C
:10103000808182608083808181608083E0E8F0E04D
:10104000808181608083E1EBF0E080818460808337
:10105000E0EBF0E0808181608083EAE7F0E080816E
:1010600084608083808182608083808181608083CE
:101070008081806880831092C10008958F929F9232
:10108000AF92BF92CF92DF92EF92FF920F931F9396
:10109000CF93DF93EB0180912B018A3108F471C06B
:1010A000EA85FB8580819181843F914060F41986B7
:1010B00018868FEF9FEFDC018C839D83AE83BF8307
:1010C0008BE090E066C08281938160E679E00E94C7
:1010D0004E0A892B09F455C073E0A72EB12C02E00B
:1010E00010E0C12CD12C760180912B0190E0A81644
:1010F000B906E4F5EA85FB85C801880F991FE80F5A
:10110000F91F8081918168E572E00E94940A892B21
:1011100061F14501880C991CEA85FB85E80DF91DF4
:101120008081918160EB74E00E944E0A892B39F036
:10113000CC0CDD1CEE1CFF1C6894C0F810C0EA85C6
:10114000FB85E80DF91D8081918168E572E00E94C0
:101150004E0A892BB1F0CC0CDD1CEE1CFF1C0E5F7F
:101160001F4F82E0A80EB11CBFCF850101501109AD
:1011700015950795198708870C30110524F41986F1
:10118000188680E009C0CC82DD82EE82FF8284E096
:1011900090E09983888381E0DF91CF911F910F9137
:1011A000FF90EF90DF90CF90BF90AF909F908F9087
:1011B00008958F929F92AF92BF92CF92DF92EF925B
:1011C000FF920F931F93CF93DF93EB0180912B013D
:1011D0008A3108F47AC0EA85FB858081918180326A
:1011E000934050F4198618868FEF9FEFDC018C83B3
:1011F0009D83AE83BF836FC0828193816CEA7DE063
:101200000E944E0A892B09F460C0EA85FB8584811F
:1012100095816CEA7DE00E944E0A892B09F455C045
:1012200054E0A52EB12C03E010E0C12CD12C7601A6
:1012300080912B0190E0A816B906E4F5EA85FB85BC
:10124000C801880F991FE80FF91F8081918166EB13
:1012500073E00E94940A892B61F14501880C991C66
:10126000EA85FB85E80DF91D8081918160E679E0D2
:101270000E944E0A892B39F0CC0CDD1CEE1CFF1CA1
:101280006894C0F810C0EA85FB85E80DF91D8081DF
:1012900091816CEB72E00E944E0A892BB1F0CC0C6C
:1012A000DD1CEE1CFF1C0E5F1F4F82E0A80EB11C60
:1012B000BFCF85010150110915950795198708873A
:1012C0000C30110524F41986188680E009C0CC8200
:1012D000DD82EE82FF828BE090E09983888381E05B
:1012E000DF91CF911F910F91FF90EF90DF90CF9002
:1012F000BF90AF909F908F900895AF92BF92CF9282
:10130000DF92EF92FF920F931F93CF93DF93EB0146
:1013100080912B01893310F480E071C0EA85FB8550
:101320008281938160E47FE10E944E0A892BA1F3C0
:10133000EA85FB858481958160EA7FE00E94940ABA
:10134000892B51F338E0A32EB12C03E010E0C12C1F
:10135000D12C7601EA85FB85C801880F991FE80F1B
:10136000F91F8081918168E572E00E944E0A892B05
:1013700099F2EA85FB85EA0DFB1D8081918160E48D
:1013800076E00E94940A892B39F0CC0CDD1CEE1C0F
:10139000FF1C6894C0F811C0EA85FB85EA0DFB1DAF
:1013A0008081918166E272E00E94940A892B09F49F
:1013B000B3CFCC0CDD1CEE1CFF1C0E5F1F4F84E076
:1013C000A80EB11C0B33110529F6EA85FB85EA58F6
:1013D000FF4F8081918168E572E00E944E0A892B5F
:1013E00009F49ACF8CE190E099878887CC82DD82DE
:1013F000EE82FF828AE090E09983888381E0DF912A
:10140000CF911F910F91FF90EF90DF90CF90BF9001
:10141000AF900895CF92DF92EF92FF92CF93DF9338
:10142000EC01882777FD8095982F0E94A4136B010B
:101430007C0120E030E040E45FE30E94541420E0AF
:1014400030E048E452E40E9409130E947113C61769
:10145000D707D4F020E030E040EA5FE3C701B601EF
:101460000E94541420E030E048E452E40E94091342
:1014700020E030E040E85FE30E94A1120E94711377
:1014800021E06C177D070CF420E0822F90E0DF91C3
:10149000CF91FF90EF90DF90CF900895CF92DF92A1
:1014A000EF92FF92CF93DF93EC016C597F4F882727
:1014B00077FD8095982F0E94A4136B017C0120E09A
:1014C00030E040E45FE30E94541420E030E048E460
:1014D00052E40E9409130E947113C617D707D4F073
:1014E00020E030E040EA5FE3C701B6010E945414F7
:1014F00020E030E048E452E40E94091320E030E0AC
:1015000040E85FE30E94A1120E94711321E06C1772
:101510007D070CF420E0822F90E0DF91CF91FF90C7
:10152000EF90DF90CF900895CF92DF92EF92FF92ED
:10153000CF93DF93EC0164567109882777FD80957E
:10154000982F0E94A4136B017C0120E030E040E45E
:101550005FE30E94541420E030E048E452E40E942B
:1015600009130E947113C617D707D4F020E030E0AA
:1015700040EA5FE3C701B6010E94541420E030E066
:1015800048E452E40E94091320E030E040E85FE3C1
:101590000E94A1120E94711321E06C177D070CF4C8
:1015A00020E0822F90E0DF91CF91FF90EF90DF90CD
:1015B000CF9008951F920F920FB60F9211242F9380
:1015C0003F934F935F936F937F938F939F93AF93CB
:1015D000BF93EF93FF93809128010E9464032091B1
:1015E0002C0130912D012F5F3F4F30932D0120931F
:1015F0002C0190912B01953618F096E090932701DD
:10160000909127019430C9F128F4923069F0933019
:10161000D1F05EC0953009F451C0963009F058C041
:1016200091E09093F80151C0811152C020912C019A
:1016300030912D012436310508F442C01092F80192
:1016400010922B011CC0813009F042C0E0912B01A7
:1016500091E09E0F90932B01F0E020912C013091AE
:101660002D01EE0FFF1FE95DFE4F3087278310929B
:101670002D0110922C0194E029C0811117C0E09136
:101680002B0191E09E0F90932B01F0E020912C0113
:1016900030912D01EE0FFF1FE95DFE4F308727834C
:1016A00010922D0110922C0193E010C020912C017A
:1016B00030912D012536310558F007C0811108C041
:1016C00010922D0110922C0103C095E090932701F8
:1016D00090912A019923B9F081110AC080912901C2
:1016E000882321F08091290161E009C02D9A0BC067
:1016F00080912901882331F08091290160E00E94C6
:101700002E0301C02D98FF91EF91BF91AF919F9152
:101710008F917F916F915F914F913F912F910F909A
:101720000FBE0F901F901895AF92BF92CF92DF928D
:10173000EF92FF920F931F93CF93DF93EB01809172
:101740002B01863410F480E086C0EA85FB85828117
:1017500093816EEE72E00E944E0A892BA1F3EA8516
:10176000FB85848195816EEE72E00E94940A892B3C
:1017700051F3EA85FB858681978162E27BE00E94D6
:101780004E0A892B01F3EA85FB858085918562E20B
:101790007BE00E94940A892BB1F25CE0A52EB12C6B
:1017A00005E010E0C12CD12C7601EA85FB85C8014B
:1017B000880F991FE80FF91F808191816EEE72E00A
:1017C0000E944E0A892B09F4BECFEA85FB85EA0DFB
:1017D000FB1D8081918166E678E00E94940A892B46
:1017E00039F0CC0CDD1CEE1CFF1C6894C0F811C055
:1017F000EA85FB85EA0DFB1D808191816EEE72E02A
:101800000E94940A892B09F49ECFCC0CDD1CEE1C9F
:10181000FF1C0E5F1F4F84E0A80EB11C053411059C
:1018200021F6EA85FB85E657FF4F808191816EEEB8
:1018300072E00E944E0A892B09F485CF80E290E085
:1018400099878887CC82DD82EE82FF8288E090E0F3
:101850009983888381E0DF91CF911F910F91FF9051
:10186000EF90DF90CF90BF90AF900895AF92BF926E
:10187000CF92DF92EF92FF920F931F93CF93DF935C
:10188000EB0180912B01883510F480E075C0EA856A
:10189000FB858281938160E672E20E944E0A892B69
:1018A000A1F3EA85FB858481958164E971E10E9459
:1018B000940A892B51F3BEE1CB2ED12C1DE1E12EF0
:1018C000F12C00E010E080912B0190E00497E816E5
:1018D000F906C4F5EA85FB85C701880F991FE80F53
:1018E000F91F8081918164EF71E00E944E0A892B7B
:1018F00061F25601AA0CBB1CEA85FB85EA0DFB1DB3
:101900008081918168E572E00E94940A892B21F020
:10191000000F111F01600EC0EA85FB85EA0DFB1D5B
:101920008081918164EA76E00E94940A892B49F0D3
:10193000000F111F82E0E80EF11C82E0C80ED11CDE
:10194000C2CF760181E0E81AF108F594E794F986B0
:10195000E8868AE2E816F1040CF497CFC801AA27BA
:1019600097FDA095BA2F8C839D83AE83BF8389E0BA
:1019700090E09983888381E0DF91CF911F910F914F
:10198000FF90EF90DF90CF90BF90AF900895AF920F
:10199000BF92CF92DF92EF92FF920F931F93CF935C
:1019A000DF93EB0180912B01803211F080E05FC06A
:1019B000EA85FB85828193816CE271E00E944E0A88
:1019C000892BA1F3EA85FB85848195816EEE72E017
:1019D0000E94940A892B51F306E010E0C12CD12C0F
:1019E0007601EA85FB85E00FF11F808191816CE231
:1019F00071E00E944E0A892BC9F2580182E0A80EBC
:101A0000B11CEA85FB85EA0DFB1D8081918168E0B0
:101A100077E00E94940A892B39F0CC0CDD1CEE1C77
:101A2000FF1C6894C0F811C0EA85FB85EA0DFB1D18
:101A3000808191816EEE72E00E94940A892B09F4F4
:101A4000B5CFCC0CDD1CEE1CFF1C0C5F1F4F0E3302
:101A5000110539F68EE090E099878887CC82DD8287
:101A6000EE82FF828FE090E09983888381E0DF91AE
:101A7000CF911F910F91FF90EF90DF90CF90BF908B
:101A8000AF900895AF92BF92CF92DF92EF92FF9204
:101A90000F931F93CF93DF93EB01EA85FB85828140
:101AA000938168E273E20E944E0A892B11F480E070
:101AB0007DC080912B01843019F5EA85FB858481F6
:101AC00095816AEC78E00E94940A892BC9F0EA8536
:101AD000FB858681978160E372E00E944E0A892B24
:101AE00079F0198618868FEF9FEFDC018C839D8338
:101AF000AE83BF8383E090E09983888381E056C002
:101B000080912B01843498F2EA85FB85848195814C
:101B100064E971E10E94940A892B49F206E010E021
:101B2000C12CD12C7601EA85FB85E00FF11F808165
:101B3000918160E372E00E944E0A892B09F4B7CFCD
:101B4000580182E0A80EB11CEA85FB85EA0DFB1D59
:101B5000808191816AE976E00E94940A892B39F0AC
:101B6000CC0CDD1CEE1CFF1C6894C0F811C0EA858B
:101B7000FB85EA0DFB1D8081918160E372E00E948C
:101B8000940A892B09F493CFCC0CDD1CEE1CFF1CAE
:101B90000C5F1F4F0638110531F680E290E09987FF
:101BA0008887CC82DD82EE82FF82A4CFDF91CF9145
:101BB0001F910F91FF90EF90DF90CF90BF90AF906B
:101BC0000895AF92BF92CF92DF92EF92FF920F9360
:101BD0001F93CF93DF93EB01EA85FB85828193818D
:101BE00068E873E10E944E0A892B11F480E07DC001
:101BF00080912B01843019F5EA85FB8584819581DC
:101C00006AEC78E00E94940A892BC9F0EA85FB858A
:101C10008681978160E372E00E944E0A892B79F0F9
:101C2000198618868FEF9FEFDC018C839D83AE832E
:101C3000BF8387E090E09983888381E056C08091DC
:101C40002B01843498F2EA85FB858481958168E8CC
:101C500073E10E94940A892B49F206E010E0C12C3E
:101C6000D12C7601EA85FB85E00FF11F80819181FF
:101C700060E372E00E944E0A892B09F4B7CF580145
:101C800082E0A80EB11CEA85FB85EA0DFB1D808170
:101C9000918160E476E00E94940A892B39F0CC0CA3
:101CA000DD1CEE1CFF1C6894C0F811C0EA85FB85A2
:101CB000EA0DFB1D8081918160E372E00E94940A2D
:101CC000892B09F493CFCC0CDD1CEE1CFF1C0C5FA0
:101CD0001F4F0638110531F680E290E0998788871A
:101CE000CC82DD82EE82FF82A4CFDF91CF911F9163
:101CF0000F91FF90EF90DF90CF90BF90AF9008953D
:101D00008F929F92AF92BF92CF92DF92EF92FF920B
:101D10000F931F93CF93DF937A016901DA01CD917D
:101D2000DC91FB0184859585C817D9070CF04AC062
:101D3000CE01880F991F0284F385E02DE80FF91F6B
:101D4000A080B180C170DD27F1E0CF27209719F482
:101D500084E690E002C08CE99FEF4801880E991E4E
:101D6000B401C5010E940A0A892B99F4800E911EC4
:101D7000B401C5010E940A0A892B71F4B401600FF5
:101D8000711FC5010E940A0A892BF9F023E030E097
:101D900005C021E030E002C022E030E0D6018D91A4
:101DA0009C91119701968217930744F0F6011182D6
:101DB0001082D7018D919C91119701968D939C93E0
:101DC000CE0105C081E090E002C08FEF9FEFDF9170
:101DD000CF911F910F91FF90EF90DF90CF90BF9028
:101DE000AF909F908F9008954F925F926F927F92E5
:101DF0008F929F92AF92BF92CF92DF92EF92FF921B
:101E00000F931F93CF93DF9300D000D0CDB7DEB7F1
:101E10006C017B011C821B8281E090E09A838983A4
:101E200080912B018D3010F480E070C009E713E041
:101E30009E012D5F3F4FAE014F5F5F4FC6010E9475
:101E4000800E892B89F79E012D5F3F4FAE014F5FBA
:101E50005F4FB701C6010E94800E019729F79E01CE
:101E60002D5F3F4FAE014F5F5F4FB701C6010E942C
:101E7000800E892BC9F6412C512C3201A12CB12C9A
:101E800080912B0190E029813A81281739079CF530
:101E900009E713E09E012D5F3F4FAE014F5F5F4F9B
:101EA000B701C6010E94800E4C019E012D5F3F4F7D
:101EB000AE014F5F5F4FB701C6010E94800E21E067
:101EC0008216910451F4892B09F0AECF440C551CB5
:101ED000661C771C689440F80AC0892809F0A4CFD2
:101EE000019709F0A1CF440C551C661C771C8FEF9D
:101EF000A81AB80AC5CFF701B186A08644825582D8
:101F00006682778281E090E0918380830F900F90CA
:101F10000F900F90DF91CF911F910F91FF90EF9055
:101F2000DF90CF90BF90AF909F908F907F906F90F9
:101F30005F904F9008952F923F924F925F926F92D1
:101F40007F928F929F92AF92BF92CF92DF92EF9249
:101F5000FF920F931F93CF93DF9300D000D0CDB7A4
:101F6000DEB76C017B011C821B82DB011C968D910C
:101F70009C911D971816190614F080E0BDC0DB0176
:101F80001A96ED91FC911B9782E090E09A838983E9
:101F9000828193816AE67AE00E944E0A892B69F376
:101FA000D7011A96ED91FC911B9789819A819C012A
:101FB0002F5F3F4F3A832983880F991FE80FF91F3E
:101FC0008081918169E773E00E94940A892BA9F2CC
:101FD0000CEB11E09E012D5F3F4FAE014F5F5F4F55
:101FE000B701C6010E94800E892B39F69E012D5F34
:101FF0003F4FAE014F5F5F4FB701C6010E94800E99
:10200000019709F0BACF212C312C2101A12CB12C40
:1020100029813A81F70184859585281739070CF0C5
:1020200060C00CEB11E09E012D5F3F4FAE014F5F92
:102030005F4FB701C6010E94800E3C01B3E0AB16B2
:10204000B10491F00CEB11E09E012D5F3F4FAE010A
:102050004F5F5F4FB701C6010E94800E4C01E3E065
:10206000AE16B10409F510C00CEB11E09E012D5F16
:102070003F4FAE014F5F5F4FB701C6010E94800E18
:1020800068167906F9F279CF0CEB11E09E012D5F0D
:102090003F4FAE014F5F5F4FB701C6010E94800EF8
:1020A0008816990609F069CF6114710459F48A946D
:1020B000892809F062CF220C331C441C551C6894FB
:1020C00020F80BC06A94672809F057CF892809F0D7
:1020D00054CF220C331C441C551CAFEFAA1ABA0A69
:1020E00097CFB186A086248235824682578282E0CD
:1020F00090E09183808381E00F900F900F900F907C
:10210000DF91CF911F910F91FF90EF90DF90CF90D3
:10211000BF90AF909F908F907F906F905F904F9007
:102120003F902F900895CF93DF938230910510F464
:1021300082E090E0E091FB01F091FC0120E030E0D2
:10214000A0E0B0E0309739F140815181481759073C
:10215000B8F04817590771F482819381109729F0DC
:1021600013969C938E9312972CC09093FC018093AE
:10217000FB0127C02115310531F04217530718F034
:10218000A901DB0101C0EF019A01BD01DF0102805D
:10219000F381E02DD7CF21153105F9F0281B390B3C
:1021A0002430310580F48A819B816115710521F00D
:1021B000FB019383828304C09093FC018093FB0115
:1021C000FE01329644C0FE01E20FF31F819391930A
:1021D00022503109398328833AC02091F901309186
:1021E000FA01232B41F42091020130910301309335
:1021F000FA012093F901209100013091010121158C
:10220000310541F42DB73EB74091040150910501CD
:10221000241B350BE091F901F091FA01E217F30765
:10222000A0F42E1B3F0B2817390778F0AC014E5F46
:102230005F4F2417350748F04E0F5F1F5093FA0188
:102240004093F9018193919302C0E0E0F0E0CF0167
:10225000DF91CF910895CF93DF93009709F487C062
:10226000FC01329713821282C091FB01D091FC01D4
:10227000209781F420813181280F391F8091F90145
:102280009091FA018217930779F5F093FA01E093A0
:10229000F9016DC0DE0120E030E0AE17BF0750F459
:1022A00012964D915C9113979D014115510509F1CD
:1022B000DA01F3CFB383A28340815181840F951F4C
:1022C0008A179B0771F48D919C911197840F951F2C
:1022D00002969183808312968D919C91139793839C
:1022E00082832115310529F4F093FC01E093FB0171
:1022F0003EC0D9011396FC93EE9312974D915D91D8
:10230000A40FB51FEA17FB0779F480819181840F30
:10231000951F0296D90111969C938E938281938189
:1023200013969C938E931297E0E0F0E08A819B8154
:10233000009719F0FE01EC01F9CFCE010296288139
:102340003981820F931F2091F9013091FA012817EA
:10235000390769F4309729F41092FC011092FB01BF
:1023600002C013821282D093FA01C093F901DF9167
:10237000CF910895A0E0B0E0E0ECF1E10C94D61428
:10238000EC01CB01209719F40E949310B8C0FE0114
:10239000E60FF71F9E0122503109E217F30708F4F8
:1023A000ACC0D9010D911C91119706171707B8F011
:1023B0000530110508F49FC0A80144505109461783
:1023C000570708F498C002501109061B170B019318
:1023D00011936D937C93CF010E942B118CC05B01F4
:1023E000A01AB10A4E01800E911EA091FB01B0917E
:1023F000FC01612C712C60E070E0109709F449C079
:10240000A815B905C9F5ED90FC901197670142E058
:10241000C40ED11CCA14DB0478F147018A189B084A
:10242000640142E0C40ED11C1296BC901297139620
:10243000AC91B5E0CB16D10440F0B282A383918277
:102440008082D9018D939C9309C00E5F1F4F0E0DA2
:102450001F1DF90111830083EB2DFA2F6115710502
:1024600031F0DB011396FC93EE93129744C0F09386
:10247000FC01E093FB013FC06D917C9111976616C2
:10248000770608F43B01BD0112960D90BC91A02D7A
:10249000B4CF6091F9017091FA0168157905E9F4FA
:1024A00068167906D0F44091000150910101411560
:1024B000510541F44DB75EB760910401709105017B
:1024C000461B570BE417F507C0F4F093FA01E093AD
:1024D000F901F901918380830EC00E9493107C0161
:1024E000009759F0A801BE010E948712CE010E94F8
:1024F0002B11C70104C0CE0102C080E090E0CDB72F
:10250000DEB7EEE00C94F214F8940C944F15FB0136
:10251000DC0102C001900D9241505040D8F708955F
:10252000FB01DC018D91019080190110D9F3990B09
:102530000895FB01DC0101900D920020E1F7089560
:102540005058BB27AA270ED075C166D130F06BD189
:1025500020F031F49F3F11F41EF45BC10EF4E095BE
:10256000E7FB51C1E92F77D180F3BA1762077307F0
:102570008407950718F071F49EF58FC10EF4E0956D
:102580000B2EBA2FA02D0B01B90190010C01CA012D
:10259000A0011124FF27591B99F0593F50F4503ED8
:1025A00068F11A16F040A22F232F342F4427585FCA
:1025B000F3CF469537952795A795F0405395C9F7E2
:1025C0007EF41F16BA0B620B730B840BBAF091509A
:1025D000A1F0FF0FBB1F661F771F881FC2F70EC039
:1025E000BA0F621F731F841F48F48795779567950C
:1025F000B795F7959E3F08F0B3CF9395880F08F0F5
:102600009927EE0F979587950895D9D008F481E022
:1026100008950CD00FC107D140F0FED030F021F466
:102620005F3F19F0F0C0511139C1F3C014D198F3D4
:102630009923C9F35523B1F3951B550BBB27AA2743
:1026400062177307840738F09F5F5F4F220F331FB5
:10265000441FAA1FA9F333D00E2E3AF0E0E830D081
:1026600091505040E695001CCAF729D0FE2F27D084
:10267000660F771F881FBB1F261737074807AB0752
:10268000B0E809F0BB0B802DBF01FF2793585F4FC7
:102690002AF09E3F510568F0B6C000C15F3FECF3E1
:1026A000983EDCF3869577956795B795F7959F5F8C
:1026B000C9F7880F911D9695879597F90895E1E0E0
:1026C000660F771F881FBB1F621773078407BA073F
:1026D00020F0621B730B840BBA0BEE1F88F7E0959A
:1026E000089504D06894B111D9C00895BCD088F081
:1026F0009F5790F0B92F9927B751A0F0D1F0660FEE
:10270000771F881F991F1AF0BA95C9F712C0B13008
:1027100081F0C3D0B1E00895C0C0672F782F88271B
:10272000B85F39F0B93FCCF3869577956795B39547
:10273000D9F73EF490958095709561957F4F8F4FB6
:102740009F4F0895E89409C097FB3EF490958095BB
:10275000709561957F4F8F4F9F4F9923A9F0F92F67
:1027600096E9BB279395F695879577956795B795E5
:10277000F111F8CFFAF4BB0F11F460FF1BC06F5FCB
:102780007F4F8F4F9F4F16C0882311F096E911C0DD
:10279000772321F09EE8872F762F05C0662371F0FE
:1027A00096E8862F70E060E02AF09A95660F771F12
:1027B000881FDAF7880F9695879597F90895990FEE
:1027C0000008550FAA0BE0E8FEEF16161706E807FB
:1027D000F907C0F012161306E407F50798F0621B1C
:1027E000730B840B950B39F40A2661F0232B242BF1
:1027F000252B21F408950A2609F4A140A6958FEF10
:10280000811D811D089597F99F6780E870E060E061
:1028100008959FEF80EC089500240A941616170679
:1028200018060906089500240A94121613061406C1
:1028300005060895092E0394000C11F4882352F024
:10284000BB0F40F4BF2B11F460FF04C06F5F7F4FDC
:102850008F4F9F4F089557FD9058440F551F59F0C3
:102860005F3F71F04795880F97FB991F61F09F3F7D
:1028700079F087950895121613061406551FF2CFA6
:102880004695F1DF08C0161617061806991FF1CFF6
:1028900086957105610508940895E894BB2766271D
:1028A0007727CB0197F908950BD0C4CFB5DF28F077
:1028B000BADF18F0952309F0A6CFABCF1124EECFE5
:1028C000CADFA0F3959FD1F3950F50E0551F629F8B
:1028D000F001729FBB27F00DB11D639FAA27F00D79
:1028E000B11DAA1F649F6627B00DA11D661F829FA0
:1028F0002227B00DA11D621F739FB00DA11D621F85
:10290000839FA00D611D221F749F3327A00D611DA1
:10291000231F849F600D211D822F762F6A2F112483
:102920009F5750408AF0E1F088234AF0EE0FFF1FD6
:10293000BB1F661F771F881F91505040A9F79E3F0D
:10294000510570F060CFAACF5F3FECF3983EDCF307
:10295000869577956795B795F795E7959F5FC1F74A
:10296000FE2B880F911D9695879597F90895DB01A9
:102970008F939F930E94C714BF91AF91A29F800D28
:10298000911DA39F900DB29F900D112408950E9458
:102990004015A59F900DB49F900DA49F800D911D93
:1029A000112408952F923F924F925F926F927F92DF
:1029B0008F929F92AF92BF92CF92DF92EF92FF924F
:1029C0000F931F93CF93DF93CDB7DEB7CA1BDB0BFB
:1029D0000FB6F894DEBF0FBECDBF09942A883988A0
:1029E00048885F846E847D848C849B84AA84B984A7
:1029F000C884DF80EE80FD800C811B81AA81B981B3
:102A0000CE0FD11D0FB6F894DEBF0FBECDBFED01C6
:102A100008950F93083090F0982F872F762F652F09
:102A2000542F432F322F22270850F4CF220F331F69
:102A3000441F551F661F771F881F991F0A95B2F7FD
:102A40000F91089597FB10F8169400080F93083023
:102A500098F00850232F342F452F562F672F782FAB
:102A6000892F902DF4CF0594979587957795679545
:102A700057954795379527950A95AAF70F91089589
:102A8000A29FB001B39FC001A39F700D811D1124AF
:102A9000911DB29F700D811D1124911D0895F89410
:022AA000FFCF66
:102AA2000000FD0180004F4646004F4E004F555436
:0A2AB20050555400494E5055540091
:00000001FF
