:100000000C945F000C9487000C9487000C9487007C
:100010000C9487000C9487000C9487000C94870044
:100020000C9487000C9487000C9487000C94870034
:100030000C9487000C9487000C9487000C94870024
:100040000C94B9080C9487000C94AD050C94DF0552
:100050000C9487000C9487000C9487000C94870004
:100060000C9487000C948700000000080002010037
:100070000003040700000000000000000102040863
:100080001020408001020408102001020408102002
:10009000040404040404040402020202020203032E
:1000A0000303030300000000250028002B000000CC
:1000B0000000240027002A0053030F065F031124C9
:1000C0001FBECFEFD8E0DEBFCDBF11E0A0E0B1E0B2
:1000D000E4E1F8E102C005900D92AE3DB107D9F719
:1000E00022E0AEEDB1E001C01D92A639B207E1F702
:1000F00010E0CCEBD0E004C02297FE010E94F90B87
:10010000C83BD107C9F70E9465070C94560B0C94A5
:1001100000000F931F93CF93DF938C01EB0160E0FE
:1001200070E0CE010E943D05811109C0B801CE01E9
:100130000E942A052696882391F381E001C080E081
:10014000DF91CF911F910F910895CF93DF93EC0131
:1001500060EC71E00E946D048CEE91E00E947407E7
:1001600018161906CCF78CEE91E00E948D078A30A4
:1001700029F0682FCE010E94E704EECF6C817D81CB
:1001800061507109CE010E948A05CE01DF91CF91A5
:100190000895EF92FF920F931F93CF93DF9300D0B8
:1001A00000D000D0CDB7DEB78C017B0160EC71E0F0
:1001B0000E946D0466E071E08CEE91E00E949B0667
:1001C000CE0101960E94A500BE016F5F7F4FC8015E
:1001D0000E948304CE0101960E94FF03C8010E9481
:1001E0008E05B701C8010E948900882319F3C80150
:1001F00026960FB6F894DEBF0FBECDBFDF91CF912C
:100200001F910F91FF90EF900895CF92DF92EF92A0
:10021000FF920F931F93CF93DF9300D000D000D0B5
:10022000CDB7DEB77C016B0160EC71E0CE010196C9
:100230000E946D048CEE91E00E9474071816190656
:10024000CCF78CEE91E00E948D07182F682FCE011D
:1002500001960E94E7041A3069F7CE0101960E94C8
:10026000A205F701208131818901222717FD209500
:10027000322F60177107820793078CF0CE01019629
:100280000E94A205F601408151818A01222717FDB3
:100290002095322F06171707280739076CF461E2FB
:1002A00071E08CEE91E00E949B0660EC71E0CE0163
:1002B00001960E94A304BECFCE0101960E94A20522
:1002C0006B017C01CE0101960E94FF03C6012696B8
:1002D0000FB6F894DEBF0FBECDBFDF91CF911F9157
:1002E0000F91FF90EF90DF90CF90089560EC71E058
:1002F00002960C946D04FC018081918108950F9306
:100300001F93CF93DF93EC018B01CB010E948E05ED
:100310006AE471E0C8010E943D05882311F0188647
:1003200009C06EE471E0C8010E943D05882311F008
:1003300081E0888768858881DF91CF911F910F9137
:100340000C94C9030F931F93CF93DF93EC018C019F
:100350000E5F1F4F61E571E0C8010E943D058823D3
:1003600011F061E008C068E571E0C8010E943D0538
:10037000882341F060E08881DF91CF911F910F9138
:100380000C949003DF91CF911F910F910895CF921C
:10039000DF92EF92FF920F931F93CF93DF93EC01C5
:1003A0007B016A018C010E5F1F4F60EC71E0C80198
:1003B0000E946D04F7018081918199838883B60141
:1003C000C8010E948304188660E088810E94C903E6
:1003D000CE01DF91CF911F910F91FF90EF90DF90B1
:1003E000CF900C94A2019F92AF92BF92CF92DF92D6
:1003F000EF92FF920F931F93CF93DF93CDB7DEB7AA
:1004000028970FB6F894DEBF0FBECDBF5C011886EB
:100410001F8289E0982E2F813885F5018081918196
:10042000821793070CF441C061E571E0CE0101969B
:100430000E946D0489E090E00E945E078C01AE018D
:100440004F5F5F4FBE01695F7F4F0E94C701CE01C2
:1004500001960E94FF032F813885929EC001939ED2
:10046000900D1124F501C280D380C80ED91EF80169
:10047000819191917F01F60181939193B701CF0111
:100480000E948304F8018085F6018087011511051B
:1004900031F0C7010E94FF03C8010E9462078F81EB
:1004A0009885019698878F83B6CF28960FB6F894D3
:1004B000DEBF0FBECDBFDF91CF911F910F91FF9097
:1004C000EF90DF90CF90BF90AF909F900895AF9244
:1004D000BF92CF92DF92EF92FF920F931F93CF9331
:1004E000DF938C017B01FB0180819181F801918375
:1004F0008083FB01208131812132FEE03F0740F4FF
:1005000049E0429FC001439F900D1124029602C012
:100510008FEF9FEF0E946007F70120813181EC018E
:1005200029933993C080D180E12CF12C5E01CE015A
:100530002996EC14FD0431F00E947601FFEFEF1ACA
:10054000FF0AF5CFF801A282B382C801DF91CF91F3
:100550001F910F91FF90EF90DF90CF90BF90AF90E1
:100560000C94F30149E0469F9001479F300D112400
:10057000FC0182819381820F931F089508950F9348
:100580001F93CF93DF9300D0CDB7DEB726E040E8CE
:1005900055E260E070E08CEE91E00E9457088DE03B
:1005A00090E09A83898384E090E00E945E078C014A
:1005B000BE016F5F7F4F0E9467021093EB010093B3
:1005C000EA010F900F90DF91CF911F910F91089545
:1005D0000F931F93CF93DF93CDB7DEB72F970FB64F
:1005E000F894DEBF0FBECDBF6EE571E08CEE91E0FA
:1005F0000E949B068091EA019091EB010E94BE024D
:100600001B861A86BC01CE010A960E940501BC0118
:100610008091EA019091EB010E94B2028C01F801F5
:1006200081919191BF019A838983CE0103960E94A3
:100630009A04F80180858987CE0101960E947B018A
:100640004AE050E0BC018CEE91E00E94460769E868
:1006500071E08CEE91E00E949B066EED71E0CE01A0
:100660000A960E94C900BE01665F7F4FCE010196C7
:100670000E947F01CE010A960E94FF036FEA71E09B
:100680008CEE91E00E949B06CE0103960E94FF0330
:100690002F960FB6F894DEBF0FBECDBFDF91CF917E
:1006A0001F910F9108956EE471E08EED91E00E942C
:1006B0006D046AE471E084EE91E00C946D0484EEC4
:1006C00091E00E94FF038EED91E00C94FF038330D4
:1006D00081F028F4813099F08230A1F008958730BC
:1006E000A9F08830B9F08430D1F4809180008F7DFA
:1006F00003C0809180008F7780938000089584B537
:100700008F7702C084B58F7D84BD08958091B0003D
:100710008F7703C08091B0008F7D8093B0000895E3
:10072000CF93DF9390E0FC01E458FF4F2491FC014C
:10073000E057FF4F8491882349F190E0880F991F7B
:10074000FC01E255FF4FA591B4918C559F4FFC01E0
:10075000C591D4919FB7611108C0F8948C912095F0
:1007600082238C93888182230AC0623051F4F894EA
:100770008C91322F309583238C938881822B8883B0
:1007800004C0F8948C91822B8C939FBFDF91CF9102
:1007900008950F931F93CF93DF931F92CDB7DEB7CA
:1007A000282F30E0F901E859FF4F8491F901E4580E
:1007B000FF4F1491F901E057FF4F04910023C9F056
:1007C000882321F069830E9467036981E02FF0E0AC
:1007D000EE0FFF1FEC55FF4FA591B4919FB7F89412
:1007E0008C91611103C01095812301C0812B8C93E2
:1007F0009FBF0F90DF91CF911F910F910895FC0142
:10080000808191810C94D609CF93DF93EC0188818C
:100810009981009711F00E94D609198218821D82D1
:100820001C821B821A82DF91CF9108950F931F9330
:10083000CF93DF93EC018B016F5F7F4F88819981AC
:100840000E94650A009731F0998388831B830A838D
:1008500081E001C080E0DF91CF911F910F91089559
:10086000CF93DF93EC0188819981892B29F08A81CC
:100870009B818617970760F4CE010E941604882397
:1008800041F08C819D81892B19F4E881F9811082D6
:1008900081E0DF91CF910895EF92FF920F931F9324
:1008A000CF93DF93EC017B018A01BA010E943004EF
:1008B000811104C0CE010E94040407C01D830C8373
:1008C000B701888199810E94730BCE01DF91CF918E
:1008D0001F910F91FF90EF900895FC0111821082FB
:1008E00013821282158214826115710559F0FB0181
:1008F00001900020E9F7AF0141505109461B570B09
:100900000C944C040895CF93DF93EC01FB01861700
:10091000970761F0608171816115710529F044814B
:1009200055810E944C0402C00E940404CE01DF9154
:10093000CF910895FC0111821082138212821582D8
:1009400014820C948304CF93DF93EC01611571053D
:1009500061F0FB0101900020E9F7AF01415051091E
:10096000461B570B0E944C0402C00E940404CE0197
:10097000DF91CF910895EF92FF920F931F93CF9342
:10098000DF93EC017B010C811D816115710511F470
:1009900080E016C04115510591F0040F151FB801F4
:1009A0000E9430048823A1F3288139818C819D81A4
:1009B000B701820F931F0E94730B1D830C8381E08C
:1009C000DF91CF911F910F91FF90EF900895CF93FA
:1009D000DF9300D0CDB7DEB769831A8241E050E0E3
:1009E000BE016F5F7F4F0E94BB040F900F90DF919D
:1009F000CF910895CF93DF93DC01ED91FC91EB0152
:100A0000A881B981309711F01097C9F4109759F067
:100A1000EB012C813D81232B31F08C9190E091955D
:100A20008195910914C0309781F0DC0114968D9165
:100A30009C911597892B49F0808190E008C0BD01F9
:100A4000CF01DF91CF910C946A0B80E090E0DF91B1
:100A5000CF910895FC0144815581FB0124813581AA
:100A60004217530741F40E94FA0421E0892B09F050
:100A700020E0822F089580E00895FC0124813581D3
:100A8000232B31F421E061157105A1F0FB0108C0B1
:100A9000FC01808191816115710531F421E0FC0137
:100AA0008081882339F005C00E946A0B21E0892BE0
:100AB00009F020E0822F0895CF93DF93EC01CB0162
:100AC0002C813D816217730710F541155105F9F02E
:100AD000B901681B790B4617570708F4BA01E8817A
:100AE000F981261B370B3D832C83A901481B590B29
:100AF000680F791F6E0F7F1F8E0F9F1F0E947A0B4A
:100B0000E881F9818C819D81E80FF91F1082DF91C6
:100B1000CF9108954FEF5FEF0C945C05CF93DF9377
:100B2000FC01C081D181209751F08881882339F060
:100B3000992787FD90950E94590B8993F6CFDF91F5
:100B4000CF910895FC0180819181009711F00C9460
:100B50002F0B60E070E0CB0108951F920F920FB64B
:100B60000F9211242F938F939F93EF93FF93E09114
:100B7000FC01F091FD018081E0910202F0910302FD
:100B800082FD12C09081809105028F5F8F7320914A
:100B90000602821751F0E0910502F0E0E451FE4FA9
:100BA000958F8093050201C08081FF91EF919F9105
:100BB0008F912F910F900FBE0F901F9018951F923D
:100BC0000F920FB60F9211242F933F934F935F9381
:100BD0006F937F938F939F93AF93BF93EF93FF9305
:100BE0008CEE91E00E94AF07FF91EF91BF91AF9122
:100BF0009F918F917F916F915F914F913F912F9135
:100C00000F900FBE0F901F9018958CEE91E00E94F0
:100C1000740721E0892B09F420E0822F08951092B7
:100C2000EF011092EE0188EE93E0A0E0B0E0809337
:100C3000F0019093F101A093F201B093F30181EDE3
:100C400091E09093ED018093EC0185EC90E090931E
:100C5000F9018093F80184EC90E09093FB0180937C
:100C6000FA0180EC90E09093FD018093FC0181EC0F
:100C700090E09093FF018093FE0182EC90E09093CE
:100C800001028093000286EC90E09093030280932F
:100C900002021092050210920602109207021092B0
:100CA00008020895CF92DF92EF92FF920F931F9365
:100CB000CF93DF937C016A01EB0100E010E00C159B
:100CC0001D0571F06991D701ED91FC910190F081C2
:100CD000E02DC7010995892B19F00F5F1F4FEFCF4A
:100CE000C801DF91CF911F910F91FF90EF90DF909E
:100CF000CF9008956115710581F0DB010D90002002
:100D0000E9F7AD0141505109461B570BDC01ED914C
:100D1000FC910280F381E02D099480E090E0089539
:100D2000DC01ED91FC910190F081E02D09946EEBD6
:100D300071E00C947A060F931F93CF93DF93EC012D
:100D40000E947A068C01CE010E949706800F911FA7
:100D5000DF91CF911F910F9108958F929F92AF9243
:100D6000BF92DF92EF92FF920F931F93CF93DF9387
:100D7000CDB7DEB7A1970FB6F894DEBF0FBECDBFDB
:100D80007C01F42FD52ECB0119A2223008F42AE0E1
:100D90008E010F5D1F4F822E912CA12CB12C6F2F35
:100DA0007D2DA50194010E949E0BF22FD32ECA0126
:100DB000015011096A3014F4E0E301C0E7E3E60FE3
:100DC000D801EC93232B242B252B49F7B801C7011D
:100DD0000E947A06A1960FB6F894DEBF0FBECDBF73
:100DE000DF91CF911F910F91FF90EF90DF90BF9017
:100DF000AF909F908F900895CF92DF92EF92FF92E5
:100E00000F931F93CF93DF93EC016A017B012115B0
:100E1000310579F4E881F9810190F081E02D642FAA
:100E2000DF91CF911F910F91FF90EF90DF90CF90C6
:100E300009942A303105E9F477FF1AC06DE20E9467
:100E400090068C0144275527BA014C195D096E099B
:100E50007F092AE0CE010E94AD06800F911FDF912D
:100E6000CF911F910F91FF90EF90DF90CF90089559
:100E70002AE0B701A601CE01DF91CF911F910F911A
:100E8000FF90EF90DF90CF900C94AD060F931F93DF
:100E9000CF93DF93EC019A01AB01662757FD609574
:100EA000762F0E94FC068C01CE010E949706800FCF
:100EB000911FDF91CF911F910F9108950C943E09DE
:100EC0000C943E090C94D60908950E9403090E94CF
:100ED00064070E94BF02C1EAD7E00E94E80220979F
:100EE000E1F30E94A107F9CFFC01818D228D90E0F2
:100EF000805C9F4F821B91098F7399270895FC0195
:100F0000918D828D981731F0828DE80FF11D858DBE
:100F100090E008958FEF9FEF0895FC01918D828DF1
:100F2000981761F0828DDF01A80FB11D5D968C913D
:100F3000928D9F5F9F73928F90E008958FEF9FEF48
:100F4000089585E096E0892B49F080E090E0892BB8
:100F500029F00E94050681110C9400000895FC01FF
:100F6000848DDF01A80FB11DA35ABF4F2C91848D32
:100F700090E001968F739927848FA689B7892C9367
:100F8000A089B1898C9180648C93938D848D981302
:100F900006C00288F389E02D80818F7D80830895CB
:100FA000CF93DF93EC01888D8823C9F0EA89FB8910
:100FB000808185FD05C0A889B9898C9186FD0FC007
:100FC0000FB607FCF5CF808185FFF2CFA889B989DC
:100FD0008C9185FFEDCFCE010E94AF07E7CFDF9167
:100FE000CF910895CF92DF92FF920F931F93CF93EB
:100FF000DF931F92CDB7DEB76C0181E0D601589622
:101000008C9358975B969C915B975C968C915C97C0
:10101000981307C05096ED91FC915197808185FD02
:101020002EC0F601038D10E00F5F1F4F0F731127C5
:10103000F02EF601848DF81211C00FB607FCF9CF1F
:10104000D6015096ED91FC915197808185FFF1CFAB
:10105000C60169830E94AF076981EBCF838DE80FDA
:10106000F11DE35AFF4F6083D6015B960C935B97AB
:101070005296ED91FC915397808180620CC0D6010D
:101080005696ED91FC91579760835096ED91FC91A7
:10109000519780818064808381E090E00F90DF91A0
:1010A000CF911F910F91FF90DF90CF900895BF9245
:1010B000CF92DF92EF92FF92CF93DF93EC016A0120
:1010C0007B01B22EE889F98982E08083411581EEA7
:1010D000580761057105A1F060E079E08DE390E0CB
:1010E000A70196010E949E0B215031094109510927
:1010F0005695479537952795211580E1380798F043
:10110000E889F989108260E874E88EE190E0A7012F
:1011100096010E949E0B21503109410951095695B3
:10112000479537952795EC85FD853083EE85FF85BE
:101130002083188EEC89FD89B082EA89FB89808141
:1011400080618083EA89FB89808188608083EA8965
:10115000FB89808180688083EA89FB8980818F7D1B
:101160008083DF91CF91FF90EF90DF90CF90BF9081
:1011700008951F920F920FB60F9211242F933F9351
:101180008F939F93AF93BF9380918A0290918B022C
:10119000A0918C02B0918D023091890223E0230F3F
:1011A0002D3720F40196A11DB11D05C026E8230F9F
:1011B0000296A11DB11D2093890280938A0290930B
:1011C0008B02A0938C02B0938D0280918E0290913D
:1011D0008F02A0919002B09191020196A11DB11DC4
:1011E00080938E0290938F02A0939002B09391020D
:1011F000BF91AF919F918F913F912F910F900FBE13
:101200000F901F901895789484B5826084BD84B542
:10121000816084BD85B5826085BD85B5816085BDF1
:10122000EEE6F0E0808181608083E1E8F0E010820A
:10123000808182608083808181608083E0E8F0E04B
:10124000808181608083E1EBF0E080818460808335
:10125000E0EBF0E0808181608083EAE7F0E080816C
:1012600084608083808182608083808181608083CC
:101270008081806880831092C1000895CF93DF93AE
:101280008230910510F482E090E0E0919402F091B8
:10129000950220E030E0A0E0B0E0309739F14081E5
:1012A000518148175907B8F04817590771F48281DE
:1012B0009381109729F013969C938E9312972CC0CC
:1012C000909395028093940227C02115310531F047
:1012D0004217530718F0A901DB0101C0EF019A0181
:1012E000BD01DF010280F381E02DD7CF211531054B
:1012F000F9F0281B390B2430310580F48A819B8159
:101300006115710521F0FB019383828304C09093E2
:10131000950280939402FE01329644C0FE01E20FD2
:10132000F31F8193919322503109398328833AC066
:101330002091920230919302232B41F420910201DB
:101340003091030130939302209392022091000187
:10135000309101012115310541F42DB73EB740917F
:10136000040150910501241B350BE0919202F0918C
:101370009302E217F307A0F42E1B3F0B281739073F
:1013800078F0AC014E5F5F4F2417350748F04E0FE1
:101390005F1F50939302409392028193919302C0F6
:1013A000E0E0F0E0CF01DF91CF910895CF93DF939C
:1013B000009709F487C0FC01329713821282C09112
:1013C0009402D0919502209781F420813181280FD9
:1013D000391F80919202909193028217930779F5B9
:1013E000F0939302E09392026DC0DE0120E030E0C2
:1013F000AE17BF0750F412964D915C9113979D0163
:101400004115510509F1DA01F3CFB383A28340817D
:101410005181840F951F8A179B0771F48D919C91C0
:101420001197840F951F02969183808312968D9158
:101430009C911397938382832115310529F4F093AE
:101440009502E09394023EC0D9011396FC93EE936B
:1014500012974D915D91A40FB51FEA17FB0779F420
:1014600080819181840F951F0296D90111969C93DA
:101470008E938281938113969C938E931297E0E0D2
:10148000F0E08A819B81009719F0FE01EC01F9CF11
:10149000CE01029628813981820F931F20919202FA
:1014A000309193022817390769F4309729F4109284
:1014B00095021092940202C013821282D09393027A
:1014C000C0939202DF91CF910895A0E0B0E0EBE6E7
:1014D000FAE00C94C40BEC01CB01209719F40E94A4
:1014E0003E09B8C0FE01E60FF71F9E0122503109E8
:1014F000E217F30708F4ACC0D9010D911C911197C4
:1015000006171707B8F00530110508F49FC0A801A9
:10151000445051094617570708F498C00250110962
:10152000061B170B019311936D937C93CF010E94BF
:10153000D6098CC05B01A01AB10A4E01800E911E23
:10154000A0919402B0919502612C712C60E070E042
:10155000109709F449C0A815B905C9F5ED90FC909C
:101560001197670142E0C40ED11CCA14DB0478F164
:1015700047018A189B08640142E0C40ED11C1296F0
:10158000BC9012971396AC91B5E0CB16D10440F005
:10159000B282A38391828082D9018D939C9309C0EA
:1015A0000E5F1F4F0E0D1F1DF90111830083EB2DE0
:1015B000FA2F6115710531F0DB011396FC93EE9360
:1015C000129744C0F0939502E09394023FC06D914E
:1015D0007C9111976616770608F43B01BD011296BF
:1015E0000D90BC91A02DB4CF6091920270919302A6
:1015F00068157905E9F468167906D0F44091000180
:10160000509101014115510541F44DB75EB760910C
:10161000040170910501461B570BE417F507C0F450
:10162000F0939302E0939202F901918380830EC0BC
:101630000E943E097C01009759F0A801BE010E945A
:10164000610BCE010E94D609C70104C0CE0102C0C1
:1016500080E090E0CDB7DEB7EEE00C94E00B1F9396
:10166000FC0199278827BC01E89411911032E9F315
:10167000193010F01E30C8F31B3251F01D3249F4FE
:10168000689406C00E94890B610F711D811D911D18
:10169000119110531A30B0F33EF4909580957095E7
:1016A00061957F4F8F4F9F4F1F910895F8940C9431
:1016B000FD0B9111089581568A5108F48052855886
:1016C0000895FB01DC0102C001900D924150504091
:1016D000D8F70895FB01DC018D910190801901106C
:1016E000D9F3990B0895FB01DC0101900D920020C4
:1016F000E1F70895FB01DC014150504048F00190B2
:101700000D920020C9F701C01D9241505040E0F7F2
:101710000895592F482F372F262F660F771F881FC0
:10172000991F660F771F881F991F620F731F841FF1
:10173000951F660F771F881F991F0895A1E21A2E23
:10174000AA1BBB1BFD010DC0AA1FBB1FEE1FFF1F65
:10175000A217B307E407F50720F0A21BB30BE40BB5
:10176000F50B661F771F881F991F1A9469F76095FC
:101770007095809590959B01AC01BD01CF010895B6
:101780002F923F924F925F926F927F928F929F9291
:10179000AF92BF92CF92DF92EF92FF920F931F937F
:1017A000CF93DF93CDB7DEB7CA1BDB0B0FB6F89430
:1017B000DEBF0FBECDBF09942A88398848885F8470
:1017C0006E847D848C849B84AA84B984C884DF80E1
:1017D000EE80FD800C811B81AA81B981CE0FD11DC5
:1017E0000FB6F894DEBF0FBECDBFED010895EE0F2A
:1017F000FF1F0590F491E02D099410E0CCEBD0E0B0
:1018000004C0FE010E94F90B2296CE3BD107C9F716
:04181000F894FFCF7A
:101814000000960280005479706520696E20746817
:10182400652070726F70657220776F7264733A20EE
:1018340000506C6561736520656E7465722061206B
:101844006E756D626572206265747765656E20746D
:1018540068652072616E67652E004F4646004F4EE4
:10186400004F555450555400494E50555400506C37
:10187400656173652073656C6563742061207069AC
:101884006E20746F20636F6E666967757265206F72
:101894006E20312D31333A200057696C6C20746806
:1018A40069732070696E206265206F6E206F7220EC
:1018B4006F66663F20284F4E2F4F4646292000561C
:1018C4006F6C7461676520697320736574000D0A19
:1018D400006E616E00696E66006F7666000000003F
:0E18E40000F207520674078D077F07D0070039
:00000001FF
